:020000040800F2
:1000000000280020A50B0008DD0A0008E30A00080C
:10001000E90A0008EF0A0008F50A000800000000DD
:10002000000000000000000000000000FB0A0008C3
:10003000070B000800000000130B00081F0B00084E
:10004000ED0B0008ED0B0008ED0B0008ED0B0008B0
:10005000ED0B0008ED0B0008ED0B0008ED0B0008A0
:10006000ED0B0008ED0B0008ED0B0008ED0B000890
:10007000ED0B0008ED0B0008ED0B0008ED0B000880
:10008000ED0B0008ED0B0008ED0B0008ED0B000870
:10009000ED0B0008ED0B0008ED0B0008ED0B000860
:1000A000ED0B0008ED0B0008ED0B0008ED0B000850
:1000B000ED0B0008ED0B000800000000ED0B000840
:1000C000ED0B00080000000000000000ED0B000830
:1000D00000000000ED0B0008ED0B00080000000020
:1000E000ED0B0008ED0B0008ED0B00080000000010
:1000F0000000000000000000000000000000000000
:0C01000000000000000000005FF808F1A3
:10010C0010B5054C237833B9044B13B10448AFF345
:10011C0000800123237010BD70000020000000003F
:10012C00382C000808B5034B1BB103490348AFF347
:10013C00008008BD0000000074000020382C00086E
:10014C00034613F8012B002AFBD1181A013870470B
:10015C0090B585B004AF00F045FD00F051F800F00B
:10016C00EBF800F089F800F0BDF800F073F901220B
:10017C004FF400511C4800F0F7FF1C4800F08EF9BA
:10018C000346002B16D1194B1B781846174B5B787E
:10019C001C46164B9B781A46144BDB781946134BAE
:1001AC001B79029301910092234602461049114893
:1001BC0002F0C2F800F06EFD02460F4B1B68D31A1A
:1001CC00B3F5FA7FD9D300F065FD03460A4A1360F4
:1001DC000848FFF7B5FF03469AB24FF47A73054906
:1001EC00064801F00CFFC8E7001001402801002070
:1001FC00502C00083001002094010020E400002065
:10020C0080B590B000AF07F11803282200211846E2
:10021C0002F08AF83B1D00221A605A609A60DA607C
:10022C001A610223BB610123BB621023FB62002312
:10023C007B6307F11803184600F0AEFF0346002B52
:10024C0001D000F0D9F80F237B600023BB600023A2
:10025C00FB6000233B6100237B613B1D00211846A2
:10026C0001F01CFA0346002B01D000F0C5F800BFCA
:10027C004037BD4680BD000080B500AF174B184A13
:10028C001A60164B4FF482725A60144B00229A601B
:10029C00124B0022DA60114B00221A610F4B002224
:1002AC005A610E4B4FF400729A610C4B0022DA61CA
:1002BC000A4B00221A62094B00225A62074B002299
:1002CC009A62064B0A22DA62044801F07FFB03466D
:1002DC00002B01D000F090F800BF80BD8C000020F6
:1002EC000030014080B500AF114B124A1A60104B20
:1002FC004FF416525A600E4B00229A600C4B00229F
:10030C00DA600B4B00221A61094B0C225A61084B24
:10031C0000229A61064B0022DA61054801F022FEA8
:10032C000346002B01D000F067F800BF80BD00BF72
:10033C00E40000200038014080B588B000AF07F120
:10034C00100300221A605A609A60DA60274B9B698E
:10035C00264A43F010039361244B9B6903F010036E
:10036C00FB60FB68214B9B69204A43F0200393619F
:10037C001E4B9B6903F02003BB60BB681B4B9B6946
:10038C001A4A43F004039361184B9B6903F004036E
:10039C007B607B6800224FF40051154800F0E4FEAE
:1003AC0000221021134800F0DFFE4FF400533B6194
:1003BC0001237B610023BB610223FB6107F1100366
:1003CC0019460B4800F054FD10233B6101237B615F
:1003DC000023BB610223FB6107F11003194605489A
:1003EC0000F046FD00BF2037BD4680BD0010024026
:1003FC00001001400008014080B400AF72B600BF8D
:10040C00FEE7000080B586B002AF0346FB71FB79B6
:10041C003B7300BF0E4B1B689B6803F00203022B5F
:10042C00F8D107F1080207F10C010A23009301230C
:10043C00074801F04FFB00BF054B1B689B6803F09E
:10044C008003802BF8D03B7A18461037BD4680BD10
:10045C008C00002080B500AF00F0D5F88D212A204B
:10046C0000F036F83E212B2000F032F81E212D2012
:10047C0000F02EF800212C2000F02AF87021262004
:10048C0000F026F84021152000F022F83D21112023
:10049C0000F01EF800F0A2F800BF80BD80B584B05B
:1004AC0000AF78607968262000F0B5F80346FB733E
:1004BC00FB7B002B04D1786800F0A1F90346FB7399
:1004CC0000F023FAFB7B18461037BD4680BD0000B8
:1004DC0080B582B000AF03460A46FB711346BB7170
:1004EC00002210210C4800F03FFEFB795B00DBB2D0
:1004FC0003F07E03DBB21846FFF784FFBB79184686
:10050C00FFF780FF01221021034800F02DFE00BFF1
:10051C000837BD4680BD00BF0008014080B584B0DF
:10052C0000AF0346FB71002210210F4800F01CFEA7
:10053C00FB795B005BB203F07E035BB263F07F037D
:10054C005BB2DBB21846FFF75DFF0020FFF75AFFE6
:10055C000346FB7301221021034800F005FEFB7BD0
:10056C0018461037BD4680BD0008014080B582B0EA
:10057C0000AF03460A46FB711346BB71FB79184664
:10058C00FFF7CCFF03461A46BB791343DAB2FB796B
:10059C0011461846FFF79CFF00BF0837BD4680BDCB
:1005AC0080B582B000AF03460A46FB711346BB719F
:1005BC00FB791846FFF7B2FF03465AB297F906309B
:1005CC00DB435BB213405BB2DAB2FB7911461846DF
:1005DC00FFF77EFF00BF0837BD4680BD80B582B0F7
:1005EC0000AF1420FFF79AFF0346FB71FB7903F071
:1005FC000303002B03D103211420FFF7B7FF00BF27
:10060C000837BD4680BD80B500AF0F210120FFF734
:10061C005FFF00BF80BD80B586B002AF0346396076
:10062C00FB7107210D20FFF753FF3B68FA791A7015
:10063C0007F10C0300933B68012239680C2000F091
:10064C000FF80346FB73FB7B002B02D1BB89102BED
:10065C0001D00223FB73FB7B18461037BD4680BDCF
:10066C0090B587B000AFB9607B600346FB7313464F
:10067C00BB730223FB750023BB7500237B75FB7BCF
:10068C000C2B06D00E2B09D11223BB7510237B75B6
:10069C0005E07723BB7530237B7500E000BFBB7D85
:1006AC0063F07F03DBB219460220FFF711FF8021B4
:1006BC000420FFF775FF80210A20FFF757FF002168
:1006CC000120FFF705FF00237B820AE07B8ABA68D2
:1006DC0013441B7819460920FFF7FAFE7B8A013375
:1006EC007B82BB7B9BB27A8A9A42EFD3FB7B194607
:1006FC000120FFF7EDFEFB7B0C2B03D180210D209D
:10070C00FFF734FF4FF4FA637B820420FFF706FFF8
:10071C0003463B757B8A013B7B827B8A002B0AD08C
:10072C003B7D03F00103002B05D13A7D7B7D13400B
:10073C00DBB2002BE9D080210D20FFF731FF7B8A43
:10074C00002B57D00620FFF7E9FE034603F01B03EE
:10075C00002B4DD10023FB753A7DBB7D1340DBB2E2
:10076C0003F00103002B01D00123FB75FB7B0C2B49
:10077C0040D10A20FFF7D2FE03463B750C20FFF751
:10078C00CDFE034603F007037B747B7C002B0BD060
:10079C003B7D013B9BB2DB009AB27B7C9BB213444A
:1007AC009AB2BB6A1A8005E03B7D9BB2DB009AB221
:1007BC00BB6A1A803B7D002B01D101233B753B7D2D
:1007CC00102B01D910233B7500237B820AE07B8A16
:1007DC007A68D4180920FFF7A1FE034623707B8AA0
:1007EC0001337B823B7D9BB27A8A9A42EFD301E044
:1007FC000223FB75FB7D18461C37BD4690BD80B5AA
:10080C0086B002AF786000237B7300210D20FFF7C8
:10081C005FFE7B6893221A707B68013320221A706A
:10082C0007F10A0300937B68022279680C20FFF71A
:10083C0017FF0346FB73FB7B002B18D10023BB7304
:10084C0009E0BB7B7A6813441A787B7B53407B733B
:10085C00BB7B0133BB73BB7B032BF2D9BB7B7A68AD
:10086C0013441B787A7B9A4201D00223FB73FB7BE7
:10087C0018461037BD4680BD90B587B000AFF86004
:10088C000B467A60FB7204210520FFF789FE80215C
:10089C000A20FFF76BFE0023FB750AE0FB7DFA686C
:1008AC0013441B7819460920FFF712FEFB7D013318
:1008BC00FB75FA7DFB7A9A42F0D303210120FFF7F6
:1008CC0007FEFF23FB750520FFF728FE0346BB75CB
:1008DC00FB7D013BFB75FB7D002B04D0BB7D03F046
:1008EC000403002BEFD02220FFF718FE03461A4614
:1008FC007B681A707B685C1C2120FFF70FFE034697
:10090C00237000BF1C37BD4690BD80B584B002AFCC
:10091C0050233B7000237B703B469A1C3B460221C4
:10092C001846FFF7A9FF3A463946BB1D00931346FC
:10093C0004220C20FFF794FE00BF0837BD4680BD93
:10094C0080B485B000AF154B9B69144A43F001038A
:10095C009361124B9B6903F00103BB60BB680F4BA7
:10096C00DB690E4A43F08053D3610C4BDB6903F017
:10097C0080537B607B680A4B5B68FB60FB6823F0F1
:10098C00E063FB60FB6843F00073FB60044AFB68A8
:10099C00536000BF1437BD4680BC70470010024046
:1009AC000000014080B588B000AF786007F11003FB
:1009BC0000221A605A609A60DA607B681B681B4AD6
:1009CC0093422FD11A4B9B69194A43F4805393617C
:1009DC00174B9B6903F48053FB60FB68144B9B69BA
:1009EC00134A43F004039361114B9B6903F0040316
:1009FC00BB60BB68A0233B6102237B610323FB61CB
:100A0C0007F1100319460B4800F032FA40233B6102
:100A1C0000237B610023BB6107F1100319460548D5
:100A2C0000F026FA00BF2037BD4680BD00300140E3
:100A3C00001002400008014080B588B000AF78601B
:100A4C0007F1100300221A605A609A60DA607B6822
:100A5C001B681C4A934231D11B4B9B691A4A43F4C5
:100A6C0080439361184B9B6903F48043FB60FB68E4
:100A7C00154B9B69144A43F004039361124B9B6919
:100A8C0003F00403BB60BB684FF400733B610223AB
:100A9C007B610323FB6107F1100319460B4800F03F
:100AAC00E7F94FF480633B6100237B610023BB615A
:100ABC0007F110031946054800F0DAF900BF20379A
:100ACC00BD4680BD003801400010024000080140C6
:100ADC0080B400AFFEE780B400AFFEE780B400AF97
:100AEC00FEE780B400AFFEE780B400AFFEE780B451
:100AFC0000AF00BFBD4680BC704780B400AF00BFE4
:100B0C00BD4680BC704780B400AF00BFBD4680BC02
:100B1C00704780B500AF00F0ABF800BF80BD00009F
:100B2C0080B586B000AF7860144A154BD31A7B6140
:100B3C007B693B61134B1B68002B02D1114B124A92
:100B4C001A60104B1A687B6813443A699A4207D2B0
:100B5C0001F0C0FB03460C221A604FF0FF3309E092
:100B6C00084B1B68FB60074B1A687B681344054AEB
:100B7C001360FB6818461837BD4680BD002800205E
:100B8C000004000098010020B001002080B400AFE8
:100B9C0000BFBD4680BC70470C480D490D4A002370
:100BAC0002E0D458C4500433C4188C42F9D30A4A16
:100BBC000A4C002301E013600432A242FBD3FFF77E
:100BCC00E5FF01F08DFBFFF7C3FA70470000002032
:100BDC0070000020D02C000870000020B001002014
:100BEC00FEE7000080B500AF084B1B68074A43F0D6
:100BFC0010031360032000F007F90F2000F008F831
:100C0C00FFF79EFE0023184680BD00BF0020024067
:100C1C0080B582B000AF7860124B1A68124B1B780B
:100C2C0019464FF47A73B3FBF1F3B2FBF3F31846A6
:100C3C0000F011F90346002B01D001230EE07B6874
:100C4C000F2B0AD8002279684FF0FF3000F0E7F83C
:100C5C00064A7B681360002300E00123184608371E
:100C6C00BD4680BD000000200800002004000020CC
:100C7C0080B400AF054B1B781A46054B1B68134418
:100C8C00034A136000BFBD4680BC704708000020BB
:100C9C009C01002080B400AF024B1B681846BD4677
:100CAC0080BC70479C01002080B485B000AF786098
:100CBC007B6803F00703FB600C4BDB68BB60BA6816
:100CCC004FF6FF031340BB60FB681A02BB6813436B
:100CDC0043F0BF6343F40033BB60044ABB68D3608A
:100CEC0000BF1437BD4680BC704700BF00ED00E06C
:100CFC0080B400AF044BDB681B0A03F007031846F3
:100D0C00BD4680BC704700BF00ED00E080B483B0EE
:100D1C0000AF03463960FB7197F90730002B0ADBF3
:100D2C003B68DAB20C4997F907301201D2B20B4486
:100D3C0083F800230AE03B68DAB20849FB7903F038
:100D4C000F03043B1201D2B20B441A7600BF0C37CE
:100D5C00BD4680BC704700BF00E100E000ED00E044
:100D6C0080B489B000AFF860B9607A60FB6803F0BA
:100D7C000703FB61FB69C3F10703042B28BF0423A2
:100D8C00BB61FB690433062B02D9FB69033B00E012
:100D9C0000237B614FF0FF32BB6902FA03F3DA43A5
:100DAC00BB681A407B699A404FF0FF317B6901FAAE
:100DBC0003F3D9437B680B40134318462437BD46D5
:100DCC0080BC704780B582B000AF78607B68013B17
:100DDC00B3F1807F01D301230FE00A4A7B68013B0A
:100DEC0053600F214FF0FF30FFF790FF054B0022AF
:100DFC009A60044B07221A60002318460837BD4638
:100E0C0080BD00BF10E000E080B582B000AF78601C
:100E1C007868FFF749FF00BF0837BD4680BD80B535
:100E2C0086B000AF0346B9607A60FB7300237B6128
:100E3C00FFF75EFF78617A68B9687869FFF790FF11
:100E4C00024697F90F3011461846FFF75FFF00BFB7
:100E5C001837BD4680BD80B582B000AF7860786829
:100E6C00FFF7B0FF034618460837BD4680BD0000AB
:100E7C0080B48BB000AF7860396000237B620023B4
:100E8C003B6261E101227B6A02FA03F3FB613B687E
:100E9C001B68FA691340BB61BA69FB699A4240F05E
:100EAC0050813B685B68974A93425ED0954A934267
:100EBC0075D8954A934258D0934A93426FD8934A27
:100ECC00934252D0914A934269D8914A93424CD062
:100EDC008F4A934263D88F4A934246D08D4A9342AD
:100EEC005DD8122B2AD8122B59D801A252F823F014
:100EFC00770F0008510F0008630F0008A50F0008BA
:100F0C00AB0F0008AB0F0008AB0F0008AB0F0008CD
:100F1C00AB0F0008AB0F0008AB0F0008AB0F0008BD
:100F2C00AB0F0008AB0F0008AB0F0008AB0F0008AD
:100F3C00AB0F0008590F00086D0F0008764A93425A
:100F4C0013D02CE03B68DB683B6229E03B68DB6834
:100F5C0004333B6224E03B68DB6808333B621FE0F0
:100F6C003B68DB680C333B621AE03B689B68002BE8
:100F7C0002D104233B6213E03B689B68012B05D133
:100F8C0008233B627B68FA691A6109E008233B621B
:100F9C007B68FA695A6103E000233B6200E000BF02
:100FAC00BB69FF2B01D87B6801E07B6804337B6154
:100FBC00BB69FF2B02D87B6A9B0002E07B6A083B73
:100FCC009B003B617B691A680F213B6901FA03F3B3
:100FDC00DB431A40396A3B6901FA03F31A437B6914
:100FEC001A603B685B6803F08053002B00F0A9800B
:100FFC004A4B9B69494A43F001039361474B9B69F8
:10100C0003F00103BB60BB68454A7B6A9B08023353
:10101C0052F82330FB607B6A03F003039B000F2222
:10102C0002FA03F3DB43FA681340FB607B683D4A2A
:10103C0093420DD07B683C4A934207D07B683B4A75
:10104C00934201D1022304E0032302E0012300E0D8
:10105C0000237A6A02F0030292009340FA68134369
:10106C00FB602F497B6A9B080233FA6841F8232006
:10107C003B685B6803F48033002B06D02C4B1A685A
:10108C002B49BB6913430B6006E0294B1A68BB69FB
:10109C00DB43274913400B603B685B6803F4003368
:1010AC00002B06D0224B5A682149BB6913434B6075
:1010BC0006E01F4B5A68BB69DB431D4913404B606C
:1010CC003B685B6803F48013002B06D0184B9A68BE
:1010DC001749BB6913438B6006E0154B9A68BB69D3
:1010EC00DB43134913408B603B685B6803F40013CC
:1010FC00002B1FD00E4BDA680D49BB691343CB6034
:10110C001FE000BF00003210000031100000221060
:10111C0000002110000012100000111000100240FD
:10112C000000014000080140000C0140001001408B
:10113C00000401400B4BDA68BB69DB4309491340DF
:10114C00CB607B6A01337B623B681A687B6A22FA4C
:10115C0003F3002B7FF496AE00BF00BF2C37BD46C7
:10116C0080BC70470004014080B483B000AF78604D
:10117C000B467B8013467B707B78002B03D07A88E0
:10118C007B681A6103E07B881A047B681A6100BFD4
:10119C000C37BD4680BC704780B586B000AF786018
:1011AC007B68002B01D1012372E27B681B6803F082
:1011BC000103002B00F08780924B5B6803F00C035B
:1011CC00042B0CD08F4B5B6803F00C03082B12D153
:1011DC008C4B5B6803F48033B3F5803F0BD1894BA8
:1011EC001B6803F40033002B6CD07B685B68002B0E
:1011FC0068D101234CE27B685B68B3F5803F06D174
:10120C00804B1B687F4A43F4803313602EE07B686D
:10121C005B68002B0CD17B4B1B687A4A23F4803320
:10122C001360784B1B68774A23F4802313601DE00E
:10123C007B685B68B3F5A02F0CD1724B1B68714AAD
:10124C0043F4802313606F4B1B686E4A43F4803366
:10125C0013600BE06B4B1B686A4A23F480331360FA
:10126C00684B1B68674A23F4802313607B685B68B8
:10127C00002B13D0FFF70EFD386108E0FFF70AFDD5
:10128C0002463B69D31A642B01D9032300E25D4B60
:10129C001B6803F40033002BF0D014E0FFF7FAFCCA
:1012AC00386108E0FFF7F6FC02463B69D31A642B61
:1012BC0001D90323ECE1534B1B6803F40033002BDF
:1012CC00F0D100E000BF7B681B6803F00203002B29
:1012DC0063D04C4B5B6803F00C03002B0BD0494BD9
:1012EC005B6803F00C03082B1CD1464B5B6803F4C2
:1012FC008033002B16D1434B1B6803F00203002BE9
:10130C0005D07B681B69012B01D00123C0E13D4B4B
:10131C001B6823F0F8027B685B69DB0039491343D7
:10132C000B603AE07B681B69002B20D0364B012206
:10133C001A60FFF7AFFC386108E0FFF7ABFC024620
:10134C003B69D31A022B01D90323A1E12D4B1B6856
:10135C0003F00203002BF0D02A4B1B6823F0F80299
:10136C007B685B69DB00274913430B6015E0264B58
:10137C0000221A60FFF78EFC386108E0FFF78AFC48
:10138C0002463B69D31A022B01D9032380E11D4B82
:10139C001B6803F00203002BF0D17B681B6803F081
:1013AC000803002B3AD07B689B69002B19D0174B94
:1013BC0001221A60FFF76EFC386108E0FFF76AFC47
:1013CC0002463B69D31A022B01D9032360E10D4B72
:1013DC005B6A03F00203002BF0D0012000F0D8FA76
:1013EC001CE00A4B00221A60FFF754FC38610FE036
:1013FC00FFF750FC02463B69D31A022B08D9032392
:10140C0046E100BF0010024000004242800442420C
:10141C00924B5B6A03F00203002BE9D17B681B68DB
:10142C0003F00403002B00F0A6800023FB758B4B0C
:10143C00DB6903F08053002B0DD1884BDB69874AA5
:10144C0043F08053D361854BDB6903F08053BB6061
:10145C00BB680123FB75824B1B6803F48073002B64
:10146C0018D17F4B1B687E4A43F480731360FFF7DF
:10147C0011FC386108E0FFF70DFC02463B69D31AFA
:10148C00642B01D9032303E1754B1B6803F48073B0
:10149C00002BF0D07B68DB68012B06D16F4B1B6AED
:1014AC006E4A43F0010313622DE07B68DB68002B6E
:1014BC000CD16A4B1B6A694A23F001031362674B18
:1014CC001B6A664A23F0040313621CE07B68DB682A
:1014DC00052B0CD1614B1B6A604A43F00403136269
:1014EC005E4B1B6A5D4A43F0010313620BE05B4BDE
:1014FC001B6A5A4A23F001031362584B1B6A574A62
:10150C0023F0040313627B68DB68002B15D0FFF714
:10151C00C1FB38610AE0FFF7BDFB02463B69D31AF9
:10152C0041F28832934201D90323B1E04B4B1B6A41
:10153C0003F00203002BEED014E0FFF7ABFB386195
:10154C000AE0FFF7A7FB02463B69D31A41F2883247
:10155C00934201D903239BE0404B1B6A03F0020327
:10156C00002BEED1FB7D012B05D13C4BDB693B4ABB
:10157C0023F08053D3617B68DB69002B00F08780FC
:10158C00364B5B6803F00C03082B61D07B68DB697E
:10159C00022B46D1334B00221A60FFF77BFB3861DC
:1015AC0008E0FFF777FB02463B69D31A022B01D9FF
:1015BC0003236DE0294B1B6803F00073002BF0D163
:1015CC007B681B6AB3F5803F08D1244B5B6823F41E
:1015DC0000327B689B68214913434B601F4B5B684F
:1015EC0023F474127B68196A7B685B6A0B431B4992
:1015FC0013434B601B4B01221A60FFF74BFB386106
:10160C0008E0FFF747FB02463B69D31A022B01D9CE
:10161C0003233DE0114B1B6803F00073002BF0D04B
:10162C0035E0104B00221A60FFF734FB386108E0FC
:10163C00FFF730FB02463B69D31A022B01D9032377
:10164C0026E0064B1B6803F00073002BF0D11EE064
:10165C007B68DB69012B07D1012319E000100240E4
:10166C0000700040600042420B4B5B68FB60FB6803
:10167C0003F480327B681B6A9A4206D1FB6803F440
:10168C0070127B685B6A9A4201D0012300E0002350
:10169C0018461837BD4680BD0010024080B584B096
:1016AC0000AF786039607B68002B01D10123D0E05A
:1016BC006A4B1B6803F007033A689A4210D9674BD0
:1016CC001B6823F0070265493B6813430B60634BAF
:1016DC001B6803F007033A689A4201D00123B8E073
:1016EC007B681B6803F00203002B20D07B681B680F
:1016FC0003F00403002B05D0594B5B68584A43F4A4
:10170C00E06353607B681B6803F00803002B05D073
:10171C00534B5B68524A43F460535360504B5B68C5
:10172C0023F0F0027B689B684D4913434B607B6848
:10173C001B6803F00103002B40D07B685B68012B16
:10174C0007D1474B1B6803F40033002B15D1012341
:10175C007FE07B685B68022B07D1414B1B6803F071
:10176C000073002B09D1012373E03D4B1B6803F080
:10177C000203002B01D101236BE0394B5B6823F092
:10178C0003027B685B68364913434B60FFF782FAB0
:10179C00F8600AE0FFF77EFA0246FB68D31A41F2C2
:1017AC008832934201D9032353E02D4B5B6803F03D
:1017BC000C027B685B689B009A42EBD1274B1B6841
:1017CC0003F007033A689A4210D2244B1B6823F0AB
:1017DC00070222493B6813430B60204B1B6803F044
:1017EC0007033A689A4201D0012332E07B681B68F8
:1017FC0003F00403002B08D0194B5B6823F4E06260
:10180C007B68DB68164913434B607B681B6803F0ED
:10181C000803002B09D0124B5B6823F460527B68E1
:10182C001B69DB000E4913434B6000F021F80246A4
:10183C000B4B5B681B0903F00F030A49CB5C22FAC4
:10184C0003F3094A1360094B1B681846FFF7E0F9CC
:10185C00002318461037BD4680BD00BF0020024053
:10186C00001002407C2C0008000000200400002026
:10187C0090B48AB000AF294B3C1D0FCB84E80F000D
:10188C0040F201233B800023FB610023BB6100235A
:10189C007B6200237B6100233B62214B5B68FB6115
:1018AC00FB6903F00C03042B02D0082B03D02BE0B4
:1018BC001C4B3B622BE0FB699B0C03F00F032833A2
:1018CC003B4413F8243C7B61FB6903F48033002B0D
:1018DC0012D0134B5B685B0C03F0010328333B44C1
:1018EC0013F8283CBB617B690E4A03FB02F2BB690F
:1018FC00B2FBF3F37B6204E07B690B4A02FB03F35C
:10190C007B627B6A3B6202E0064B3B6200BF3B6A38
:10191C0018462837BD4690BC704700BF6C2C000899
:10192C000010024000127A0000093D0080B400AFA4
:10193C00024B1B681846BD4680BC70470000002057
:10194C0080B500AFFFF7F2FF0246054B5B681B0A40
:10195C0003F007030349CB5C22FA03F3184680BD5E
:10196C00001002408C2C000880B500AFFFF7DEFFA2
:10197C000246054B5B68DB0A03F007030349CB5CAB
:10198C0022FA03F3184680BD001002408C2C00088C
:10199C0080B485B000AF78600A4B1B680A4AA2FB82
:1019AC0003235B0A7A6802FB03F3FB6000BFFB684E
:1019BC005A1EFA60002BF9D100BF00BF1437BD4688
:1019CC0080BC704700000020D34D621080B582B0FF
:1019DC0000AF78607B68002B01D1012376E07B6837
:1019EC005B6A002B08D17B685B68B3F5827F09D0FA
:1019FC007B680022DA6105E07B6800221A617B6853
:101A0C0000225A617B6800229A627B6893F85130FD
:101A1C00DBB2002B06D17B68002283F8502078685B
:101A2C00FEF7C0FF7B68022283F851207B681B689D
:101A3C001A687B681B6822F040021A607B685B683E
:101A4C0003F482727B689B6803F404431A437B683B
:101A5C00DB6803F400631A437B681B6903F0020321
:101A6C001A437B685B6903F001031A437B689B692B
:101A7C0003F400731A437B68DB6903F038031A43E1
:101A8C007B681B6A03F0800342EA03017B689B6A54
:101A9C0003F400527B681B680A431A607B689B69DD
:101AAC001A0C7B681B6802F004025A607B681B6886
:101ABC00DA697B681B6822F40062DA617B680022B9
:101ACC005A657B68012283F8512000231846083799
:101ADC00BD4680BD80B58CB000AFF860B9607A604F
:101AEC007B800123FB62002387F82B30FB6893F883
:101AFC005030012B01D102238AE1FB68012283F8CB
:101B0C005020FFF7C7F87862FB6893F8513087F8DC
:101B1C002330FB685B68FB617B887B8397F8233001
:101B2C00012B0FD0FB69B3F5827F07D1FB689B6853
:101B3C00002B03D197F82330042B03D0022387F812
:101B4C002B305BE1BB68002B05D07B68002B02D0EF
:101B5C007B88002B03D1012387F82B304EE1FB68E7
:101B6C0093F85130DBB2042B03D0FB68052283F8C9
:101B7C005120FB6800225A65FB687A689A63FB68FF
:101B8C007A88DA87FB687A889A87FB68BA681A635E
:101B9C00FB687A88DA86FB687A889A86FB6800226A
:101BAC001A64FB6800225A64FB681B681B6803F00C
:101BBC004003402B07D0FB681B681A68FB681B6846
:101BCC0042F040021A60FB68DB68B3F5006F78D115
:101BDC00FB685B68002B02D07B8B012B66D1FB680A
:101BEC001B6B1A88FB681B68DA60FB681B6B9A1C02
:101BFC00FB681A63FB68DB8E9BB2013B9AB2FB68F5
:101C0C00DA8653E0FB681B689B6803F00203022B27
:101C1C001BD1FB68DB8E9BB2002B16D0FB6A012B11
:101C2C0013D1FB681B6B1A88FB681B68DA60FB68B6
:101C3C001B6B9A1CFB681A63FB68DB8E9BB2013B27
:101C4C009AB2FB68DA860023FB62FB681B689B6810
:101C5C0003F00103012B19D1FB68DB8F9BB2002B26
:101C6C0014D0FB681B68DA68FB689B6B92B21A8015
:101C7C00FB689B6B9A1CFB689A63FB68DB8F9BB2BF
:101C8C00013B9AB2FB68DA870123FB62FFF702F88B
:101C9C0002467B6AD31ABA6B9A4207D8BB6BB3F174
:101CAC00FF3F03D0032387F82B30A7E0FB68DB8EC4
:101CBC009BB2002BA6D1FB68DB8F9BB2002BA1D172
:101CCC007CE0FB685B68002B02D07B8B012B6BD11B
:101CDC00FB681A6BFB681B680C3312781A70FB6874
:101CEC001B6B5A1CFB681A63FB68DB8E9BB2013BB7
:101CFC009AB2FB68DA8657E0FB681B689B6803F0B6
:101D0C000203022B1CD1FB68DB8E9BB2002B17D07D
:101D1C00FB6A012B14D1FB681A6BFB681B680C3334
:101D2C0012781A70FB681B6B5A1CFB681A63FB68F1
:101D3C00DB8E9BB2013B9AB2FB68DA860023FB6216
:101D4C00FB681B689B6803F00103012B19D1FB682E
:101D5C00DB8F9BB2002B14D0FB681B68DA68FB6826
:101D6C009B6BD2B21A70FB689B6B5A1CFB689A6314
:101D7C00FB68DB8F9BB2013B9AB2FB68DA870123CD
:101D8C00FB62FEF787FF02467B6AD31ABA6B9A4254
:101D9C0003D8BB6BB3F1FF3F02D1BB6B002B03D15C
:101DAC00032387F82B3029E0FB68DB8E9BB2002BDA
:101DBC00A2D1FB68DB8F9BB2002B9DD17A6AB96BE9
:101DCC00F86800F0B1F80346002B06D0012387F821
:101DDC002B30FB6820225A6510E0FB689B68002BB7
:101DEC000BD100237B61FB681B68DB687B61FB68A4
:101DFC001B689B687B617B6900E000BFFB6801226C
:101E0C0083F85120FB68002283F8502097F82B3080
:101E1C0018463037BD4680BD80B588B000AFF8603D
:101E2C00B9603B601346FB71FEF734FF0246BB6A98
:101E3C009B1A3A681344FB61FEF72CFFB861394BCF
:101E4C001B685B011B0DFA6902FB03F37B6154E019
:101E5C003B68B3F1FF3F50D0FEF71CFF0246BB6955
:101E6C00D31AFA699A4202D9FB69002B3DD1FB685F
:101E7C001B685A68FB681B6822F0E0025A60FB681A
:101E8C005B68B3F5827F11D1FB689B68B3F5004F9B
:101E9C0004D0FB689B68B3F5806F07D1FB681B68A7
:101EAC001A68FB681B6822F040021A60FB689B6A88
:101EBC00B3F5005F0FD1FB681B681A68FB681B68E1
:101ECC0022F400521A60FB681B681A68FB681B68D6
:101EDC0042F400521A60FB68012283F85120FB681F
:101EEC00002283F85020032317E07B69002B01D1DB
:101EFC000023FB617B69013B7B61FB681B689A6873
:101F0C00BB681340BA689A420CBF01230023DBB2B2
:101F1C001A46FB799A429BD1002318462037BD46BE
:101F2C0080BD00BF0000002080B586B002AFF86015
:101F3C00B9607A607B680093BB6800228021F868E6
:101F4C00FFF76AFF0346002B07D0FB685B6D43F07D
:101F5C002002FB685A65032300E000231846103763
:101F6C00BD4680BD80B582B000AF78607B68002B29
:101F7C0001D101233FE07B6893F83D30DBB2002BAD
:101F8C0006D17B68002283F83C207868FEF754FD6C
:101F9C007B68242283F83D207B681B68DA687B68A9
:101FAC001B6822F40052DA60786800F005F97B684F
:101FBC001B681A697B681B6822F490421A617B6863
:101FCC001B685A697B681B6822F02A025A617B687D
:101FDC001B68DA687B681B6842F40052DA607B6825
:101FEC0000221A647B68202283F83D207B68202223
:101FFC0083F83E20002318460837BD4680BD80B5C7
:10200C008AB002AFF860B9603B601346FB800023D6
:10201C007B61FB6893F83D30DBB2202B7CD1BB6835
:10202C00002B02D0FB88002B01D1012375E0FB684B
:10203C0093F83C30012B01D102236EE0FB680122A6
:10204C0083F83C20FB6800221A64FB68212283F889
:10205C003D20FEF71FFE7861FB68FA889A84FB68C6
:10206C00FA88DA84FB689B68B3F5805F08D1FB685B
:10207C001B69002B04D10023FB61BB68BB6103E02F
:10208C00BB68FB610023BB61FB68002283F83C202A
:10209C002AE03B6800937B6900228021F86800F0FD
:1020AC0040F80346002B01D0032336E0FB69002BDC
:1020BC000BD1BB691B881A46FB681B68C2F308026C
:1020CC005A60BB690233BB6107E0FB691A78FB6895
:1020DC001B685A60FB690133FB61FB68DB8C9BB2AC
:1020EC00013B9AB2FB68DA84FB68DB8C9BB2002B59
:1020FC00CFD13B6800937B6900224021F86800F047
:10210C0010F80346002B01D0032306E0FB682022C5
:10211C0083F83D20002300E0022318462037BD46FB
:10212C0080BD80B584B000AFF860B9603B601346E9
:10213C00FB712CE0BB69B3F1FF3F28D0BB69002BCE
:10214C0007D0FEF7A7FD02463B68D31ABA699A423C
:10215C001DD2FB681B68DA68FB681B6822F4D0721E
:10216C00DA60FB681B685A69FB681B6822F0010285
:10217C005A61FB68202283F83D20FB68202283F8FB
:10218C003E20FB68002283F83C2003230FE0FB6811
:10219C001B681A68BB681340BA689A420CBF0123CB
:1021AC000023DBB21A46FB799A42C3D000231846AF
:1021BC001037BD4680BD000080B584B000AF78609C
:1021CC007B681B681B6923F440517B68DA687B6869
:1021DC001B680A431A617B689A687B681B691A43FF
:1021EC007B685B691343BB607B681B68DB6823F40B
:1021FC00B05323F00C037A681268B9680B43D360B0
:10220C007B681B685B6923F440717B689A697B6807
:10221C001B680A435A617B681B682C4A934203D1A2
:10222C00FFF7A2FBF86002E0FFF78AFBF860FA68A0
:10223C0013469B0013449A001A447B685B689B000E
:10224C00B2FBF3F3224AA2FB03235B091901FA68E0
:10225C0013469B0013449A001A447B685B689B00EE
:10226C00B2FBF3F21A4BA3FB02035B09642000FBE5
:10227C0003F3D31A1B013233154AA2FB03235B0968
:10228C0003F0F0031944FA6813469B0013449A00B8
:10229C001A447B685B689B00B2FBF3F20C4BA3FB0C
:1022AC0002035B09642000FB03F3D31A1B013233D6
:1022BC00074AA2FB03235B0903F00F027B681B6830
:1022CC000A449A6000BF1037BD4680BD00380140FB
:1022DC001F85EB51014B1868704700BF0C000020A4
:1022EC0070B500260C4D0D4C641BA410A64209D1F0
:1022FC0000F09CFC00260A4D0A4C641BA410A6425C
:10230C0005D170BD55F8043B98470136EEE755F8FA
:10231C00043B98470136F2E7C82C0008C82C00088B
:10232C00C82C0008CC2C000803460244934200D170
:10233C00704703F8011BF9E70EB46FF0004100B5CC
:10234C009CB01DAB02900690079104910848094976
:10235C0053F8042B0591006802A9019300F068F86A
:10236C000022029B1A701CB05DF804EB03B070479E
:10237C000C0000200802FFFF2DE9F0478E68824612
:10238C009E420C4690461F4638D88A8912F4906FAC
:10239C0032D0256809690133A5EB010965694B4405
:1023AC0005EB450505EBD5756D109D4238BF1D46F7
:1023BC00530531D5294600F06FFB064650B90C2366
:1023CC004FF0FF30CAF80030A38943F04003A381DB
:1023DC00BDE8F0874A46216900F0CEFAA38923F4C0
:1023EC00906343F08003A38126614E4426603E46F1
:1023FC006561A5EB0905A560BE4200D93E46324693
:10240C004146206800F0C6FAA36800209B1BA3601D
:10241C00236833442360DBE72A4600F0B1FB064611
:10242C000028E1D15046216900F0CEFAC7E7000040
:10243C002DE9F04F98468B8907461B060D4614462E
:10244C009DB00ED50B6963B9402100F025FB2860C7
:10245C00286120B90C233B604FF0FF30D1E04023C2
:10246C006B610023099320238DF8293030234FF022
:10247C000109CDF80C80DFF8A4818DF82A302346B1
:10248C009A4613F8012B0AB1252AF9D1BAEB040BA1
:10249C000BD05B46224629463846FFF76DFF0130CC
:1024AC0000F0AA80099A5A4409929AF80030002B3D
:1024BC0000F0A28000234FF0FF32CDE905230AF192
:1024CC00010A049307938DF853301A93544605224E
:1024DC0014F8011B514800F041FA049AD8B9D006FF
:1024EC0044BF20238DF85330110744BF2B238DF8A4
:1024FC0053309AF800302A2B15D0544600204FF058
:10250C000A0C079A214611F8013B303B092B4ED996
:10251C00B0B1079214E0A0EB080309FA03F31343DC
:10252C00A2460493D2E7039B191D1B680391002B51
:10253C00BBBF5B4242F0020207930793B8BF049201
:10254C0023782E2B0CD163782A2B35D1039B0234A4
:10255C001A1D1B680392002BB8BF4FF0FF33059375
:10256C00DFF8BCA003225046217800F0F7F940B107
:10257C004023A0EB0A0003FA00F0049B0134034350
:10258C00049314F8011B062226488DF8281000F03D
:10259C00E5F9002838D0244B1BBB039B073323F0F1
:1025AC00070308330393099B3344099367E70C46ED
:1025BC0001200CFB0232A5E700234FF00A0C194650
:1025CC0001340593204610F8012B303A092A03D91F
:1025DC00002BC5D00591C3E7044601230CFB012158
:1025EC00F0E703AB00932A463846104B04A9AFF32F
:1025FC000080421C0646D6D1AB895B063FF52CAF5A
:10260C0009981DB0BDE8F08F03AB00932A463846FD
:10261C00064B04A900F07CF8EBE700BF942C0008F3
:10262C009A2C00089E2C000800000000852300084E
:10263C002DE9F047164699468A680B69074693427E
:10264C00B8BF1346336091F843200C46DDF8208068
:10265C000AB1013333602368990642BF33680233F1
:10266C003360256815F0060506D104F1190AE368F4
:10267C0032689B1AAB4228DC94F84320131E226864
:10268C0018BF012392062DD44946384604F1430263
:10269C00C047013020D02368E56803F00603042B03
:1026AC0018BF002532684FF00006A36808BFAD1AAA
:1026BC00226908BF25EAE5759342C4BF9B1AED1841
:1026CC001A34B5421AD1002008E00123524649467B
:1026DC003846C047013003D14FF0FF30BDE8F087DA
:1026EC000135C4E73020E11881F843005A1C94F8F6
:1026FC0045102244023382F84310C5E701232246D9
:10270C0049463846C0470130E6D00136D9E70000CB
:10271C002DE9FF470F7E9146782F80460C469A464E
:10272C000C9D01F1430207D8622F0AD8002F00F04C
:10273C00D980582F00F0A48004F1420584F842702F
:10274C003AE0A7F16303152BF6D801A151F823F059
:10275C00B5270008C92700084527000845270008A9
:10276C004527000845270008C92700084527000809
:10277C00452700084527000845270008D7280008EA
:10278C00F9270008B9280008452700084527000844
:10279C00F928000845270008F927000845270008F4
:1027AC0045270008C12800082B681A1D1B682A60E1
:1027BC0004F1420584F842300123A4E02068296822
:1027CC00060601F104030AD50E682B60002E03DA0D
:1027DC002D23764284F843300A235E4819E00E68B4
:1027EC0010F0400F2B6018BF36B2EFE72B68206853
:1027FC00191D2960010601D51E6802E04606FBD5AD
:10280C001E886F2F0CBF08230A235248002184F81E
:10281C0043106568002DA8BF2168A560A4BF21F0F6
:10282C00040121600EB9002D4DD01546B6FBF3F115
:10283C0003FB1167C75D05F8017D3746BB420E46A9
:10284C00F4D9082B0BD12368DE0708D523696168FE
:10285C009942DEBF302305F8013C05F1FF35521BD0
:10286C0022614B4621464046CDF800A003AAFFF753
:10287C00DFFE01304CD14FF0FF3004B0BDE8F087E3
:10288C00344881F845702968236851F8046B296035
:10289C001D0614D5DF0744BF43F0200323601EB987
:1028AC00236823F0200323601023AFE7236843F051
:1028BC00200323607823284884F84530E3E7590641
:1028CC0048BFB6B2E6E71546BBE72B682668181D6D
:1028DC006169286035061B6801D5196002E0700635
:1028EC00FBD51980002315462361BAE72B6800211C
:1028FC001A1D2A601D686268284600F02FF808B17E
:10290C00401B606063682361002384F84330A8E7B0
:10291C002A46494640462369D0470130ABD023684C
:10292C009B0713D4E068039B9842B8BF1846A4E7F2
:10293C000123324649464046D04701309BD00135F1
:10294C00E36803995B1AAB42F2DCEBE7002504F178
:10295C001906F5E7A52C0008B62C0008034610B59F
:10296C00C9B202449342184601D1002003E0047816
:10297C0001338C42F6D110BD0A44914200F1FF3371
:10298C0000D1704710B511F8014B914203F8014F7B
:10299C00F9D110BD884210B501EB020402D9844272
:1029AC00234607D8431EA14208D011F8012B03F887
:1029BC00012FF8E7014602448A4200D110BD13F8FA
:1029CC00014D02F8014DF7E738B50546002940D016
:1029DC0051F8043C0C1F002BB8BFE41800F010F9A0
:1029EC001C4A136833B9636014602846BDE838404C
:1029FC0000F00CB9A34208D9206821188B4201BF02
:102A0C0019685B6809182160EDE71A465B680BB121
:102A1C00A342FAD911685018A0420BD12068014486
:102A2C00501883421160E0D118685B680144116052
:102A3C005360DAE702D90C232B60D6E72068211803
:102A4C008B4201BF19685B68091821606360546090
:102A5C00CBE738BDA001002070B50E4E0C46316896
:102A6C00054611B900F0BCF830602146284600F04C
:102A7C00B7F8431C0AD0C41C24F00304A04207D0AE
:102A8C00211A284600F0ACF8013001D14FF0FF3488
:102A9C00204670BDA40100202DE9F041CD1C25F08D
:102AAC00030508350C2D38BF0C25002D074601DB1E
:102ABC00A94205D90C2300263B603046BDE8F081C5
:102ACC002E4E00F09DF833681C4634BB2946384620
:102ADC00FFF7C2FF431C04464DD134682646002E36
:102AEC0040D123683146384604EB030800F078F8EF
:102AFC0080453AD1216803356D1A25F00305083558
:102B0C000C2D38BF0C2538462946FFF7A5FF0130A0
:102B1C002BD023682B4423600EE02268521B1ED45A
:102B2C000B2A16D96119A342256018BF5960636836
:102B3C0008BF316062514B60384604F10B0600F05F
:102B4C0065F826F00706231DF21AB6D09B1BA3507E
:102B5C00B3E76268A3420CBF32605A60ECE72346CD
:102B6C006468B2E734467668B9E70C2338463B60B4
:102B7C0000F04CF8A1E72560DEE700BFA0010020C3
:102B8C002DE9F041804614460E4621B91146BDE8A8
:102B9C00F041FFF781BF2AB9FFF716FF25462846FB
:102BAC00BDE8F08100F038F88442074602D8B4EB57
:102BBC00500F12D821464046FFF76EFF05460028FD
:102BCC00EDD0BC422246314628BF3A46FFF7D4FE30
:102BDC0031464046FFF7F8FEE1E73546DFE70000F7
:102BEC0038B50023054D044608462B60FDF798FFC9
:102BFC00431C02D12B6803B1236038BDA80100200F
:102C0C00014800F011B800BFAC010020014800F0F1
:102C1C000CB800BFAC01002051F8043C181F002B6D
:102C2C00BCBF0B58C018704770477047F8B500BF51
:102C3C00F8BC08BC9E467047F8B500BFF8BC08BC91
:042C4C009E467047E9
:102C500049443A20307825303258253032582530D2
:102C6000325825303258253032580000020304050E
:102C7000060708090A0B0C0D0E0F101000000000CB
:102C8000000000000102030406070809000000001C
:102C900001020304232D302B2000686C4C00656674
:102CA000674546470030313233343536373839419D
:102CB00042434445460030313233343536373839B3
:082CC0006162636465660000B7
:042CC80031010008CE
:042CCC000D010008EE
:102CD0000024F4001000000001000000100000209B
:102CE00000000000000000000000000000000000E4
:102CF00000000000000000000000000000000000D4
:102D000000000000000000000000000000000000C3
:102D100000000000000000000000000000000000B3
:102D200000000000000000000000000000000000A3
:102D30000000000000000000000000000000000093
:0400000508000BA53F
:00000001FF
